{
  "transactions": [
    {
      "hash": "0xaf112823166ef664a3bc47b23c46a30f68ea7312c75da09505afb13cd3d20730",
      "transactionType": "CALL",
      "contractName": null,
      "contractAddress": "0xd211a1D78A369dBF28fC4a8FD6c0Ef9058856D07",
      "function": "setPrice(int256)",
      "arguments": [
        "100000000"
      ],
      "transaction": {
        "type": "0x02",
        "from": "0x0f6a0fbb5a9e10f50f364b2409a5bbb9afa52059",
        "to": "0xd211a1d78a369dbf28fc4a8fd6c0ef9058856d07",
        "gas": "0xb3b8",
        "value": "0x0",
        "data": "0xf7a308060000000000000000000000000000000000000000000000000000000005f5e100",
        "nonce": "0x3e",
        "accessList": []
      },
      "additionalContracts": [],
      "isFixedGasLimit": false
    }
  ],
  "receipts": [
    {
      "transactionHash": "0xaf112823166ef664a3bc47b23c46a30f68ea7312c75da09505afb13cd3d20730",
      "transactionIndex": "0x18",
      "blockHash": "0xdd5c66b2689cf48695c5865c45fddcbe54ff2c6b3e532d07985a387f99726615",
      "blockNumber": "0x17abdb2",
      "from": "0x0f6A0fBb5a9E10f50f364b2409a5Bbb9aFa52059",
      "to": "0xd211a1D78A369dBF28fC4a8FD6c0Ef9058856D07",
      "cumulativeGasUsed": "0x1360333",
      "gasUsed": "0x7ae3",
      "contractAddress": null,
      "logs": [],
      "status": "0x1",
      "logsBloom": "0x00000000000000000000000000000000000000000000000000000000000000000000000000000000000000000000000000000000000000000000000000000000000000000000000000000000000000000000000000000000000000000000000000000000000000000000000000000000000000000000000000000000000000000000000000000000000000000000000000000000000000000000000000000000000000000000000000000000000000000000000000000000000000000000000000000000000000000000000000000000000000000000000000000000000000000000000000000000000000000000000000000000000000000000000000000000",
      "type": "0x2",
      "effectiveGasPrice": "0xb2d05fcf"
    }
  ],
  "libraries": [],
  "pending": [],
  "returns": {},
  "timestamp": 1745410635,
  "chain": 84532,
  "commit": "bf6f8b0"
}