{
  "transactions": [
    {
      "hash": "0x2303fd45c3305f82ef71ce0349f467d8e5ad54f0311455de5adb83583cc5985c",
      "transactionType": "CALL",
      "contractName": null,
      "contractAddress": "0x22f6b02Fe1542B722d10580FE85Acf027D2D7aB4",
      "function": "approve(address,uint256)",
      "arguments": [
        "0x00787f613037a4de42B5c7A8d4303f0D14907821",
        "1000000000000000000000"
      ],
      "transaction": {
        "type": "0x02",
        "from": "0xe536b4d7cf1e346d985cee807e16b1b11b019976",
        "to": "0x22f6b02fe1542b722d10580fe85acf027d2d7ab4",
        "gas": "0xf7f5",
        "value": "0x0",
        "data": "0x095ea7b300000000000000000000000000787f613037a4de42b5c7a8d4303f0d1490782100000000000000000000000000000000000000000000003635c9adc5dea00000",
        "nonce": "0x29",
        "accessList": []
      },
      "additionalContracts": [],
      "isFixedGasLimit": false
    },
    {
      "hash": "0x753ebe31b1885f689952dbb9691048ae7428d71930d6d7edce4067de0d24051c",
      "transactionType": "CALL",
      "contractName": null,
      "contractAddress": "0x00787f613037a4de42B5c7A8d4303f0D14907821",
      "function": "openPosition(address,address,uint256,uint256)",
      "arguments": [
        "0xE536B4D7cf1e346D985cEe807e16B1b11B019976",
        "0x22f6b02Fe1542B722d10580FE85Acf027D2D7aB4",
        "1000000000000000000000",
        "500000000000000000000"
      ],
      "transaction": {
        "type": "0x02",
        "from": "0xe536b4d7cf1e346d985cee807e16b1b11b019976",
        "to": "0x00787f613037a4de42b5c7a8d4303f0d14907821",
        "gas": "0xa97cc",
        "value": "0x0",
        "data": "0x6ef1a28f000000000000000000000000e536b4d7cf1e346d985cee807e16b1b11b01997600000000000000000000000022f6b02fe1542b722d10580fe85acf027d2d7ab400000000000000000000000000000000000000000000003635c9adc5dea0000000000000000000000000000000000000000000000000001b1ae4d6e2ef500000",
        "nonce": "0x2a",
        "accessList": []
      },
      "additionalContracts": [],
      "isFixedGasLimit": false
    }
  ],
  "receipts": [
    {
      "transactionHash": "0x2303fd45c3305f82ef71ce0349f467d8e5ad54f0311455de5adb83583cc5985c",
      "transactionIndex": "0x1",
      "blockHash": "0x49962a3baa27f6544d8694c6b3fab4267c832286e37a328cb7c026a2305681b5",
      "blockNumber": "0x17b4d98",
      "from": "0xE536B4D7cf1e346D985cEe807e16B1b11B019976",
      "to": "0x22f6b02Fe1542B722d10580FE85Acf027D2D7aB4",
      "cumulativeGasUsed": "0x18895",
      "gasUsed": "0xb385",
      "contractAddress": null,
      "logs": [
        {
          "address": "0x22f6b02Fe1542B722d10580FE85Acf027D2D7aB4",
          "topics": [
            "0x8c5be1e5ebec7d5bd14f71427d1e84f3dd0314c0f7b2291e5b200ac8c7c3b925",
            "0x000000000000000000000000e536b4d7cf1e346d985cee807e16b1b11b019976",
            "0x00000000000000000000000000787f613037a4de42b5c7a8d4303f0d14907821"
          ],
          "data": "0x00000000000000000000000000000000000000000000003635c9adc5dea00000",
          "blockHash": "0x49962a3baa27f6544d8694c6b3fab4267c832286e37a328cb7c026a2305681b5",
          "blockNumber": "0x17b4d98",
          "transactionHash": "0x2303fd45c3305f82ef71ce0349f467d8e5ad54f0311455de5adb83583cc5985c",
          "transactionIndex": "0x1",
          "logIndex": "0x0",
          "removed": false
        }
      ],
      "status": "0x1",
      "logsBloom": "0x00000000000000000000000000000000000000000000000000000000000000000000000001000000000000000000000000000000000000000000008000200000000000000000000000000000000000000000000000000000004000000000000000000000000000000000000000000000004000000000000000000000000000000000000000001000000000000000000000000000000000000000000000000000021000000000000000800000000000000000000000004000000000000000000000000000000000000000000000000000000000000000000000000000000000000010000000000000000000000000000000000000000000000000200000000000",
      "type": "0x2",
      "effectiveGasPrice": "0xb2d05f8b"
    },
    {
      "transactionHash": "0x753ebe31b1885f689952dbb9691048ae7428d71930d6d7edce4067de0d24051c",
      "transactionIndex": "0x2",
      "blockHash": "0x49962a3baa27f6544d8694c6b3fab4267c832286e37a328cb7c026a2305681b5",
      "blockNumber": "0x17b4d98",
      "from": "0xE536B4D7cf1e346D985cEe807e16B1b11B019976",
      "to": "0x00787f613037a4de42B5c7A8d4303f0D14907821",
      "cumulativeGasUsed": "0x8c6ce",
      "gasUsed": "0x73e39",
      "contractAddress": null,
      "logs": [
        {
          "address": "0x22f6b02Fe1542B722d10580FE85Acf027D2D7aB4",
          "topics": [
            "0xddf252ad1be2c89b69c2b068fc378daa952ba7f163c4a11628f55a4df523b3ef",
            "0x000000000000000000000000e536b4d7cf1e346d985cee807e16b1b11b019976",
            "0x00000000000000000000000000787f613037a4de42b5c7a8d4303f0d14907821"
          ],
          "data": "0x00000000000000000000000000000000000000000000003635c9adc5dea00000",
          "blockHash": "0x49962a3baa27f6544d8694c6b3fab4267c832286e37a328cb7c026a2305681b5",
          "blockNumber": "0x17b4d98",
          "transactionHash": "0x753ebe31b1885f689952dbb9691048ae7428d71930d6d7edce4067de0d24051c",
          "transactionIndex": "0x2",
          "logIndex": "0x1",
          "removed": false
        },
        {
          "address": "0x239b5ded987a738D1bfDaD29782AC4cfC00442e7",
          "topics": [
            "0xddf252ad1be2c89b69c2b068fc378daa952ba7f163c4a11628f55a4df523b3ef",
            "0x0000000000000000000000000000000000000000000000000000000000000000",
            "0x000000000000000000000000e536b4d7cf1e346d985cee807e16b1b11b019976"
          ],
          "data": "0x00000000000000000000000000000000000000000000001b1ae4d6e2ef500000",
          "blockHash": "0x49962a3baa27f6544d8694c6b3fab4267c832286e37a328cb7c026a2305681b5",
          "blockNumber": "0x17b4d98",
          "transactionHash": "0x753ebe31b1885f689952dbb9691048ae7428d71930d6d7edce4067de0d24051c",
          "transactionIndex": "0x2",
          "logIndex": "0x2",
          "removed": false
        },
        {
          "address": "0x22f6b02Fe1542B722d10580FE85Acf027D2D7aB4",
          "topics": [
            "0xddf252ad1be2c89b69c2b068fc378daa952ba7f163c4a11628f55a4df523b3ef",
            "0x00000000000000000000000000787f613037a4de42b5c7a8d4303f0d14907821",
            "0x0000000000000000000000000f6a0fbb5a9e10f50f364b2409a5bbb9afa52059"
          ],
          "data": "0x000000000000000000000000000000000000000000000001158e460913d00000",
          "blockHash": "0x49962a3baa27f6544d8694c6b3fab4267c832286e37a328cb7c026a2305681b5",
          "blockNumber": "0x17b4d98",
          "transactionHash": "0x753ebe31b1885f689952dbb9691048ae7428d71930d6d7edce4067de0d24051c",
          "transactionIndex": "0x2",
          "logIndex": "0x3",
          "removed": false
        },
        {
          "address": "0x28c88c2E49bDe4BfFc2c065b345A06D5204C2186",
          "topics": [
            "0xddf252ad1be2c89b69c2b068fc378daa952ba7f163c4a11628f55a4df523b3ef",
            "0x0000000000000000000000000000000000000000000000000000000000000000",
            "0x000000000000000000000000e536b4d7cf1e346d985cee807e16b1b11b019976",
            "0x0000000000000000000000000000000000000000000000000000000000000001"
          ],
          "data": "0x",
          "blockHash": "0x49962a3baa27f6544d8694c6b3fab4267c832286e37a328cb7c026a2305681b5",
          "blockNumber": "0x17b4d98",
          "transactionHash": "0x753ebe31b1885f689952dbb9691048ae7428d71930d6d7edce4067de0d24051c",
          "transactionIndex": "0x2",
          "logIndex": "0x4",
          "removed": false
        },
        {
          "address": "0x00787f613037a4de42B5c7A8d4303f0D14907821",
          "topics": [
            "0x448a8741dd841ab1b03c11ae3bf36911a1a08697abbd85778e8b7f1d09be6403",
            "0x0000000000000000000000000000000000000000000000000000000000000001",
            "0x000000000000000000000000e536b4d7cf1e346d985cee807e16b1b11b019976"
          ],
          "data": "0x00000000000000000000000000000000000000000000003635c9adc5dea0000000000000000000000000000000000000000000000000001b1ae4d6e2ef500000",
          "blockHash": "0x49962a3baa27f6544d8694c6b3fab4267c832286e37a328cb7c026a2305681b5",
          "blockNumber": "0x17b4d98",
          "transactionHash": "0x753ebe31b1885f689952dbb9691048ae7428d71930d6d7edce4067de0d24051c",
          "transactionIndex": "0x2",
          "logIndex": "0x5",
          "removed": false
        }
      ],
      "status": "0x1",
      "logsBloom": "0x00000000000000000000000000000000000000000000000000000000000000000000000001000000000000000000000000000000000000000100008000040000040000000000000000000008000000000000000000040000004000000000000000000000020000000000000000000800004000012000000000000010000000000000000000011000000000000000000000000000000000000000100000000000001000000000000000801000000000000000000000044000000000000000000000002002000000000000000000000000000000000000000000000000000060000000000000030000000080000000000000000020000000000400200000000000",
      "type": "0x2",
      "effectiveGasPrice": "0xb2d05f8b"
    }
  ],
  "libraries": [],
  "pending": [],
  "returns": {},
  "timestamp": 1745484309,
  "chain": 84532,
  "commit": "637f0ff"
}