{
  "transactions": [
    {
      "hash": "0x9d277724431ee99f865c6e411b8737be7bdf5e6c093b6ee2444a3b60d3c275e7",
      "transactionType": "CALL",
      "contractName": null,
      "contractAddress": "0x5B984aaA085B418d810D9547e2b00EDC9FB092F1",
      "function": "setPrice(int256)",
      "arguments": [
        "20000000000"
      ],
      "transaction": {
        "type": "0x02",
        "from": "0x0f6a0fbb5a9e10f50f364b2409a5bbb9afa52059",
        "to": "0x5b984aaa085b418d810d9547e2b00edc9fb092f1",
        "gas": "0x9ab0",
        "value": "0x0",
        "data": "0xf7a3080600000000000000000000000000000000000000000000000000000004a817c800",
        "nonce": "0x4e",
        "accessList": []
      },
      "additionalContracts": [],
      "isFixedGasLimit": false
    }
  ],
  "receipts": [
    {
      "transactionHash": "0x9d277724431ee99f865c6e411b8737be7bdf5e6c093b6ee2444a3b60d3c275e7",
      "transactionIndex": "0x16",
      "blockHash": "0x69ed4870341472a5190f507b310aa517aa1b64df56edaa6b48c06f8ee5f61f3f",
      "blockNumber": "0x17b4e5a",
      "from": "0x0f6A0fBb5a9E10f50f364b2409a5Bbb9aFa52059",
      "to": "0x5B984aaA085B418d810D9547e2b00EDC9FB092F1",
      "cumulativeGasUsed": "0x5b5626",
      "gasUsed": "0x6fff",
      "contractAddress": null,
      "logs": [],
      "status": "0x1",
      "logsBloom": "0x00000000000000000000000000000000000000000000000000000000000000000000000000000000000000000000000000000000000000000000000000000000000000000000000000000000000000000000000000000000000000000000000000000000000000000000000000000000000000000000000000000000000000000000000000000000000000000000000000000000000000000000000000000000000000000000000000000000000000000000000000000000000000000000000000000000000000000000000000000000000000000000000000000000000000000000000000000000000000000000000000000000000000000000000000000000",
      "type": "0x2",
      "effectiveGasPrice": "0xb2d05f73"
    }
  ],
  "libraries": [],
  "pending": [],
  "returns": {},
  "timestamp": 1745484698,
  "chain": 84532,
  "commit": "637f0ff"
}