{
  "transactions": [
    {
      "hash": "0x31cd2d1511f3dc7bc4147e47d660cb656ef07df3be70c8c861edb7916a637e5c",
      "transactionType": "CALL",
      "contractName": null,
      "contractAddress": "0xd211a1D78A369dBF28fC4a8FD6c0Ef9058856D07",
      "function": "setPrice(int256)",
      "arguments": [
        "100000000"
      ],
      "transaction": {
        "type": "0x02",
        "from": "0x0f6a0fbb5a9e10f50f364b2409a5bbb9afa52059",
        "to": "0xd211a1d78a369dbf28fc4a8fd6c0ef9058856d07",
        "gas": "0xb3b8",
        "value": "0x0",
        "data": "0xf7a308060000000000000000000000000000000000000000000000000000000005f5e100",
        "nonce": "0x40",
        "accessList": []
      },
      "additionalContracts": [],
      "isFixedGasLimit": false
    }
  ],
  "receipts": [
    {
      "transactionHash": "0x31cd2d1511f3dc7bc4147e47d660cb656ef07df3be70c8c861edb7916a637e5c",
      "transactionIndex": "0x2f",
      "blockHash": "0x469a96f4f072f20612c1d462e4312f31d631f2f287dd836498761f5c66cedd11",
      "blockNumber": "0x17ac137",
      "from": "0x0f6A0fBb5a9E10f50f364b2409a5Bbb9aFa52059",
      "to": "0xd211a1D78A369dBF28fC4a8FD6c0Ef9058856D07",
      "cumulativeGasUsed": "0x774972",
      "gasUsed": "0x7ae3",
      "contractAddress": null,
      "logs": [],
      "status": "0x1",
      "logsBloom": "0x00000000000000000000000000000000000000000000000000000000000000000000000000000000000000000000000000000000000000000000000000000000000000000000000000000000000000000000000000000000000000000000000000000000000000000000000000000000000000000000000000000000000000000000000000000000000000000000000000000000000000000000000000000000000000000000000000000000000000000000000000000000000000000000000000000000000000000000000000000000000000000000000000000000000000000000000000000000000000000000000000000000000000000000000000000000",
      "type": "0x2",
      "effectiveGasPrice": "0xb2d05fc5"
    }
  ],
  "libraries": [],
  "pending": [],
  "returns": {},
  "timestamp": 1745412436,
  "chain": 84532,
  "commit": "bf6f8b0"
}